:070000000203507590FF227E
:10000B00020515C293D292D291D2902097137F05FD
:10001B007E001205CC2097093097FD9006810201D6
:10002B00862096137F057E001205CC20960930960C
:10003B00FD9006850201862095137F057E00120533
:10004B00CC2095093095FD900689020186209413EA
:10005B007F057E001205CC2094093094FD90068D0F
:10006B00020186D293C292D291D2902097137F0530
:10007B007E001205CC2097093097FD900682020175
:10008B00862096137F057E001205CC2096093096AC
:10009B00FD9006860201862095137F057E001205D2
:1000AB00CC2095093095FD90068A02018620941389
:1000BB007F057E001205CC2094093094FD90068EAE
:1000CB00020186D293D292C291D2902097137F05D0
:1000DB007E001205CC2097093097FD900683020114
:1000EB00862096137F057E001205CC20960930964C
:1000FB00FD9006870201862095127F057E00120572
:10010B00CC2095083095FD90068B806F2094127F44
:10011B00057E001205CC2094083094FD90068F804C
:10012B005AD293D292D291C2902097127F057E0021
:10013B001205CC2097083097FD900684803D2096C1
:10014B00127F057E001205CC2096083096FD900696
:10015B008880282095127F057E001205CC209508FB
:10016B003095FD90068C80132094147F057E001231
:10017B0005CC20940A3094FD900690E493FF227FE7
:10018B00FF22E4F539E539B40800504D90019EF893
:10019B002828730201B60201BA0201C20201C6028B
:1001AB0001CE0201D20201DA0201DED2A28002C22A
:1001BB00A2D2A3D2A48022D2A28002C2A2C2A3D274
:1001CB00A48016D2A28002C2A2D2A3C2A4800AD259
:1001DB00A28002C2A2C2A3C2A4E539653B701A7405
:1001EB00292539F8E6B410113001089004EAE4939C
:1001FB00FF80027F008F80800C74292539F8E690F0
:10020B0004DA93F5807F027E001205CCE4F58005BD
:10021B0039E539C39408500302019022E53B640889
:10022B0060030202BB20002AF53A7429253AF8E64E
:10023B00FF7421253AF8A607053AE53AB408EB1204
:10024B0005AB7BFF7A0479BF7D017F02120588D253
:10025B000022D207E4F53A7429253AF8E6FF742117
:10026B00253AF8E66F6004C2078007053AE53AB411
:10027B0008E51205AB300729E4F53A7421253AF865
:10028B00E6FF7431253AF8A607053AE53AB408EBD0
:10029B007BFF7A0479C87D017F02120588C2068034
:1002AB000D7BFF7A0479D17D017F02120588C20094
:1002BB0022BB010CE58229F582E5833AF583E02226
:1002CB005006E92582F8E622BBFE06E92582F8E214
:1002DB0022E58229F582E5833AF583E49322EF8DBB
:1002EB00F0A4A8F0CF8CF0A428CE8DF0A42EFE2283
:1002FB00BC000BBE0029EF8DF084FFADF022E4CCE7
:10030B00F875F008EF2FFFEE33FEEC33FCEE9DECAF
:10031B00984005FCEE9DFE0FD5F0E9E4CEFD22EDF5
:10032B00F8F5F0EE8420D21CFEADF075F008EF2F3F
:10033B00FFED33FD4007985006D5F0F222C398FD30
:10034B000FD5F0EA22787FE4F6D8FD75813B0203E6
:10035B009702053DE493A3F8E493A34003F68001D1
:10036B00F208DFF48029E493A3F85407240CC8C3E4
:10037B0033C4540F4420C8834004F456800146F61E
:10038B00DFE4800B01020408102040809004EBE4B2
:10039B007E019360BCA3FF543F30E509541FFEE47C
:1003AB0093A360010ECF54C025E060A840B8E4933E
:1003BB00A3FAE493A3F8E493A3C8C582C8CAC58380
:1003CB00CAF0A3C8C582C8CAC583CADFE9DEE78005
:1003DB00BE20B1142003117F147E001205CC20B176
:1003EB000CD20312044A800530B102C20320B014B0
:1003FB002004117F147E001205CC20B00CD2041205
:10040B0005AB800530B002C20420B22D20052A7F37
:10041B00147E001205CC20B225300222D205B20682
:10042B001205AB7BFF3006067A06794B80047A0601
:10043B0079547D017F0202058830B202C20522E5A4
:10044B003BC3940850087BFF7A0479A4803AC2021C
:10045B00E4F53A7429253AF8E6FF7431253AF8E6C3
:10046B00B5070EE53AB40702D202053AE53AB408ED
:10047B00E230020B1205AB7BFF7A0479AD800912D7
:10048B0005AB7BFF7A0479B67D017F0212058822CA
:10049B00202020202020202000494E5055542E2E65
:1004AB002E00454E5445522020200057524F4E47A8
:1004BB0020202000414741494E2120200053415626
:1004CB004544212020004E4F542053414D45003FC1
:1004DB00065B4F666D7D077F6F777C395E797108A0
:1004EB00C10608291010101010101010083101024D
:1004FB00030405060708013B00C102C181C100C10D
:10050B0003C104C105020B000000C0E0C0D0758A16
:10051B0018758CFC050CE50C7002050BC394F4E507
:10052B000B94014008750B00750C00B201D0D0D0B4
:10053B00E03212060A1200031206377BFF7A0679A5
:10054B006C7D017F0112058812018D120564120367
:10055B00DC3006F412022780EF12000EEFF4601C61
:10056B00E53BC394085015EF940950107429253BB3
:10057B00F8A607E53BC394085002053B228B088A7B
:10058B0009890A120621E4FDAB08AA09A90A8D8282
:10059B007583001202BCFF60061206000D80E92273
:1005AB00E4F53A7429253AF87610053AE53AB40899
:1005BB00F2E4F53B7BFF7A04799B7D017F02020518
:1005CB0088E4FDFCC3ED9FEC9E5015E4FBFA0BBBDE
:1005DB0000010AEB64784A70F50DBD00010C80E454
:1005EB0022CFCDCFCECCCE1202FB7C007D0A1202E5
:1005FB00FBED2430FFD2A612065DC2A702066353A1
:10060B0089F0438901758A18758CFCC28DD28CD206
:10061B00A9D2AFC2B922AE07BE0104ED148006BE4B
:10062B000209ED243F4480FF120677227F38120621
:10063B00777F0C1206777F061206777F010206770B
:10064B00534554204D4F444500202020202020208E
:10065B002000C2A58F80D2A77F027EEFDEFEDFFCDB
:10066B00222D50415353574F52442D00C2A6120610
:10067B005DC2A70206630001020304050607080911
:06068B000A0B0C0D0E0F1E
:00000001FF
