:100000000206BFC2B77F02DFFED2B77F02DFFEA2C9
:10001000B7E433FE7F18DFFEAF0622020A0F0203A9
:10002000DFE86480F8E933E83360110460F0ED3311
:10003000EC337009E8FCE9FDEAFEEBFF220460DE28
:10004000D3EB9FEA9EE99DE8C2E78CF0C2F795F0FA
:10005000400CE8CCF8E9CDF9EACEFAEBCFFB12037D
:10006000AA85D0F05804700320D5B3E80470075077
:1000700002B2D50203E992D5EC0460F7E4CCC0E00B
:10008000C398F8603B94186008400DD0E0FB020371
:10009000C1E4FBFAC9FC8028E830E406E4C9FBE4CB
:1000A000CAFCE830E305E4C9CACBFCE85407601099
:1000B000F8C3E913F9EA13FAEB13FBEC13FCD8F1DC
:1000C00030F52FC3E49CFCEF9BFFEE9AFEED99FD0B
:1000D000D0E0FBEF4E4D4C701222DB030203E6EC46
:1000E0002CFCEF33FFEE33FEED33FDED30E7EB029A
:1000F00003C1EF2BFFEE3AFEED39FDD0E0FB5013CC
:100100000BBB00030203E9ED13FDEE13FEEF13FF3B
:10011000EC13FC0203C1EC4D6011E8497017ED339C
:10012000EC3304600DE4FCFFFEFD22E933E8330408
:1001300070F80203DF1203AA58046009E4CC24819A
:1001400050062850090203E92840030203E6C0E0F4
:10015000EB4A7044B98006D0E0FB0203D5EF4E7045
:100160001CBD8008EBFFEAFEE9FD80EBE98DF0A401
:10017000FEE5F00201FFE9CDF9EAFEEBFFEF89F0C1
:10018000A4FCE5F0CE89F0A42EFFE435F0CD89F093
:10019000A42DFEE435F08067EF4E7005BD80D7805A
:1001A000C3EF8BF0A4ACF0EE8BF0A42CFCE435F0A4
:1001B000F8EF8AF0A42CE5F038FCE433CB8DF0A402
:1001C0002CFCE5F03BF8EE8AF0A42CFCE5F038F8C6
:1001D000E433CF89F0A42CFCE5F038CF3400CE898D
:1001E000F0A42FFFE5F03EFEE433C98DF0A42EFE0F
:1001F000E5F039CD8AF0A42FFFE5F03EFEE43DFDA9
:1002000033D0E0FB50070BBB000F0203E9EC2CFCE2
:10021000EF33FFEE33FEED33FD0203C10203E9ECE1
:100220005D046005E8590470030203DF1203AA5855
:100230000460F6EC4860F2EC7004FDFEFF22C8603A
:10024000DB2481C85009C398600250060203E69877
:1002500050CAF582E9294B4A7005AB820203D57575
:10026000F0007C1A7880C3EF9BEE9AED99400DC3A5
:10027000EF9BFFEE9AFEED99FDE842F0DC23ACF037
:10028000D0E0FFD0E0FED0E0FDAB8220E7101BEB1A
:1002900060BAEC2CFCEF33FFEE33FEED33FD0203CE
:1002A000C1E803F830E705C0F075F000EF2FFFEE6E
:1002B00033FEED33FD40B830E7C280AA74F8CC6459
:1002C00080CCC86480C8F58204604FC3EB9FF5F012
:1002D000EA9E42F0E99D42F0E89C45F0603C501DEA
:1002E000E5825FFFE582D313CB5BCBF42B5582FB1A
:1002F00050280ABA002409B9002008801DE5825B55
:10030000FBE582D313CF5FCFF4C3132F5582FF5089
:10031000090EBE00050DBD00010CC3EB9FF5F0EA10
:100320009E42F0E99D42F0E89C45F06007CC4820F1
:10033000E701B3EC2275F020800E75F01080057592
:10034000F0087D007E007F003392D530D503120483
:1003500088EC334010EF33FFEE33FEED33FDEC332A
:10036000FCD5F0ED22E5F0247EA2D513CC92E7CDAA
:10037000CEFF22EDD2E7CD33EC3392D52481400677
:10038000E4FFFEFDFC22FCE4CFCECDCC24E05011F6
:1003900074FF80EDC3CC13CCCD13CDCE13CECF13D1
:1003A000CF0470F030D5DE020488E9D2E7C933E823
:1003B00033F892D5EDD2E7CD33EC33FC5002B2D511
:1003C00022EC30E7100FBF000C0EBE00080DBD0080
:1003D000040BEB6014A2D5EB13FCED92E7FD227445
:1003E000FFFCFDFEFF22E480F8A2D574FF13FC7D24
:1003F00080E480EFBB010CE58229F582E5833AF5C4
:1004000083E0225006E92582F8E622BBFE06E925B4
:1004100082F8E222E58229F582E5833AF583E493C6
:1004200022EF8DF0A4A8F0CF8CF0A428CE8DF0A4FC
:100430002EFE22BC000BBE0029EF8DF084FFADF034
:1004400022E4CCF875F008EF2FFFEE33FEEC33FC1E
:10045000EE9DEC984005FCEE9DFE0FD5F0E9E4CE54
:10046000FD22EDF8F5F0EE8420D21CFEADF075F023
:1004700008EF2FFFED33FD4007985006D5F0F2222C
:10048000C398FD0FD5F0EA22C3E49FFFE49EFEE48B
:100490009DFDE49CFC22120A1E1209C67BFF7A080D
:1004A000796D7D017F011208E57BFF7A0879707D07
:1004B000097F011208E57BFF7A0879737D0D7F01C2
:1004C0001208E51207E5120A2BE52CFB3395E0FA3A
:1004D0007525027D0B7F01120946E52DFB3395E062
:1004E000FA7525027D0F7F011209461205D0052BF2
:1004F000E52B7002052A7F017E00120908C3E52B57
:1005000094EEE52A940240E3E4F52AF52B12084123
:100510008F318E308D2F8C2E120A2BAF31AE30AD35
:100520002FAC2E120373AB07AA067525027D037F3D
:10053000011209467B2E7D057F01120A42AF31AEC2
:1005400030AD2FAC2E120373AD07AC06EC12033A9C
:10055000A804A905AA06AB07AF31AE30AD2FAC2E6B
:10056000120021E4FBFA792078411201161203737C
:10057000AB07AA067525017D067F01120946E52C09
:10058000FB3395E0FA7525027D0B7F01120946E5E4
:100590002DFB3395E0FA7525027D0F7F0112094688
:1005A000AF31AE30AD2FAC2E12074B50137BFF7A1C
:1005B0000879767D017F021208E51207B30204EB89
:1005C0007BFF7A0879867D017F021208E50204EB41
:1005D00020B1342000317F147E0012090820B12C94
:1005E000D200C3E52C648094E35002052CAD2DAFFE
:1005F0002C120814E52CFB3395E0FA7525027D0BCF
:100600007F01120946800530B102C20020B03420BB
:1006100001317F147E0012090820B02CD201D3E5ED
:100620002C648094494002152CAD2DAF2C12081477
:10063000E52CFB3395E0FA7525027D0B7F0112094D
:1006400046800530B002C20120B2342002317F144E
:100650007E0012090820B22CD202C3E52D648094DA
:10066000E25002052DAD2DAF2C120814E52DFB3301
:1006700095E0FA7525027D0F7F011209468005304D
:10068000B202C20220B33220032F7F147E0012096F
:100690000820B32AD203D3E52D6480944940021583
:1006A0002DAD2DAF2C120814E52DFB3395E0FA7516
:1006B00025027D0F7F0102094630B302C203227872
:1006C0007FE4F6D8FD758131020706020496E493B3
:1006D000A3F8E493A34003F68001F208DFF4802935
:1006E000E493A3F85407240CC8C333C4540F442024
:1006F000C8834004F456800146F6DFE4800B010213
:100700000408102040809008BEE47E019360BCA3E2
:10071000FF543F30E509541FFEE493A360010ECF60
:1007200054C025E060A840B8E493A3FAE493A3F88A
:10073000E493A3C8C582C8CAC583CAF0A3C8C5824A
:10074000C8CAC583CADFE9DEE780BE8F248E238D49
:10075000228C21AC2CEC12033FAB24AA23A922A8A3
:10076000211202BC5015AC2DEC12033FAB24AA237E
:10077000A922A8211202BC60025003D38001C32227
:100780007F0AEA24FFFDE434FFFC7E008E268F27DB
:100790008C288D297F017E00E4FBEBC39529E52899
:1007A0006480F8748098500AAC26AD271204210B9F
:1007B00080E822E4F521E521C395085020E5217564
:1007C000F003A42409F8E6FFE52175F003A4240A48
:1007D000F8E6FC08E6FD1209B0052180D9E4FF1215
:1007E0000896C28E221209807FCC1209DA7FB812D5
:1007F00009DA1209807FCC1209DA7FBE1209DA12F7
:1008000009638F211209638F211209638F2C12094A
:10081000638F2D228F2C8D2D1209807FCC1209DA47
:100820007F4E1209DAAF2C1209DAAF2D1209DA7FE6
:100830007F1209DA1209807FCC1209DA7F48020997
:10084000DA1209807FCC1209DA7FBE1209DA1209A6
:10085000638F21120963EFFEE521FFFDAC06EC1268
:10086000033AE4FBFA7980784112021F22543A00DD
:10087000544800544C0021212120414C41524D202C
:100880002121212020004E4F524D414C202020207C
:10089000202020202000EF7005C28ED2A522EF2557
:1008A000E0244AF582E4340AF583E493F51E7401EA
:1008B00093F51FE51EF58DE51FF58BD28E22022ADA
:1008C000000015090D01F40D01F41401F41401F4F4
:1008D0001601F41601F41403E8010807C100C10170
:1008E000C102C103008B218A22892312099AE4FDE7
:1008F000AB21AA22A9238D827583001203F4FF6025
:100900000612093C0D80E922E4FDFCC3ED9FEC9E3C
:100910005015E4FBFA0BBB00010AEB64784A70F552
:100920000DBD00010C80E422CFCDCFCECCCE120481
:10093000337C007D0A120433ED2430FFD2A6120A64
:1009400000C2A7020A068A238B2412099AAA25EA62
:10095000D39400400D120780AC23AD241209281A4D
:1009600080ED22E4FDFC120003EF600D7401A80489
:10097000088002C333D8FC42050CBC08E9AF05224D
:10098000D2B7C2B77FF7DFFED2B77F20DFFEA2B7B4
:10099000E433FE7FF7DFFEAF0622AE07BE0104EDB3
:1009A000148006BE0209ED243F4480FF120A38225B
:1009B000120896AF05AE04120908E4FF1208967FEC
:1009C000327E000209087F38120A387F0C120A387A
:1009D0007F06120A387F01020A38AD07E4FCED54A5
:1009E00001FF1209EEEDC313FD0CBC08F122C2B7E2
:1009F0007E04DEFEEF24FF92B77E1DDEFED2B7221C
:100A0000C2A58F80D2A77F027EEFDEFEDFFC22C070
:100A1000E0E51EF58DE51FF58BB2A5D0E0325389D8
:100A20000F438910D2ABD2AFC28E221209807FCC85
:100A30001209DA7F440209DAC2A6120A00C2A7022A
:100A40000A06AC0312099AAF0402093CF88CF8F3C9
:100A5000F95BF9B8FA15FA67FAB9FB04FB4BFB909E
:100A6000FBCFFC10FC44FC79FCACFCDCFD09FD3444
:100A7000FD5CFD82FDA6FDC8FDE8FE06FE22FE3DF2
:100A8000FE56FE6EFE85FE9AFEAEFEC1FED3FEE46D
:040A9000FEF4FF036E
:00000001FF
