:030000000201E812
:10000B00020274E4F5213000437BFF7A0379E37D30
:10001B00017F011203A07BFF7A0379E97D087F0141
:10002B001203A07BFF7A0379EC7D0C7F011203A0F6
:10003B007BFF7A0379EF7D107F011203A07BFF7AA0
:10004B000379F17D017F021203A0C20030044DE55C
:10005B0011FB7A007526017D067F01120421E51242
:10006B00FB7A007526017D077F01120421E513FB46
:10007B007A007526017D0A7F01120421E514FB7AB3
:10008B00007526017D0B7F01120421E515FB7A001B
:10009B007526017D0E7F01120421806FE511650924
:1000AB00600FE511FB7A007526017D067F011204B6
:1000BB0021E512650A600FE512FB7A007526017DBA
:1000CB00077F01120421E513650B600FE513FB7A23
:1000DB00007526017D0A7F01120421E514650C6071
:1000EB000FE514FB7A007526017D0B7F01120421AD
:1000FB00E515650D600FE515FB7A007526017D0E84
:10010B007F01120421E516650E600FE516FB7A00E0
:10011B007526017D0F7F011204217BFF3002067AC9
:10012B000379F180047A0379FA7D017F021203A02F
:10013B00E4F52174112521F8E6FF74092521F8A6B1
:10014B00070521E521B406EB22BB010CE58229F55D
:10015B0082E5833AF583E0225006E92582F8E62210
:10016B00BBFE06E92582F8E222E58229F582E583CA
:10017B003AF583E49322EF8DF0A4A8F0CF8CF0A492
:10018B0028CE8DF0A42EFE22BC000BBE0029EF8DD5
:10019B00F084FFADF022E4CCF875F008EF2FFFEE02
:1001AB0033FEEC33FCEE9DEC984005FCEE9DFE0F10
:1001BB00D5F0E9E4CEFD22EDF8F5F0EE8420D21C6B
:1001CB00FEADF075F008EF2FFFED33FD40079850B3
:1001DB0006D5F0F222C398FD0FD5F0EA22787FE422
:1001EB00F6D8FD75812A02022F02043EE493A3F890
:1001FB00E493A34003F68001F208DFF48029E49333
:10020B00A3F85407240CC8C333C4540F4420C88329
:10021B004004F456800146F6DFE4800B010204082B
:10022B001020408090037AE47E019360BCA3FF54BE
:10023B003F30E509541FFEE493A360010ECF54C079
:10024B0025E060A840B8E493A3FAE493A3F8E49301
:10025B00A3C8C582C8CAC583CAF0A3C8C582C8CA09
:10026B00C583CADFE9DEE780BEC0E0C0F0C0D07551
:10027B008A18758CFC30026D0518E518700205178D
:10028B00C394E8E5179403405C75170075180005D7
:10029B0008E508943C4019750800050FE50F943CE0
:1002AB00400E750F000510E51094184003751000F3
:1002BB00E51075F00A84F511E51075F00A8485F0E8
:1002CB0012E50F75F00A84F513E50F75F00A8485B6
:1002DB00F014E50875F00A84F515E50875F00A8445
:1002EB0085F016D203D0D0D0F0D0E03220B115205B
:1002FB0001127F147E001203C320B10DB202D20390
:10030B00D201800530B102C20120B02F7F147E00D4
:10031B001203C320B025C2AFE4F517F518F508F5A5
:10032B000FF510F512F511F514F513F516F515D2A9
:10033B0002D20412000ED2AF30B0FD227F0AEA24A3
:10034B00FFFDE434FFFC7E008E278F288C298D2A3D
:10035B007F017E00E4FBEBC3952AE5296480F874EA
:10036B008098500AAC27AD281201810B80E822013E
:10037B001000010F0001080002170000C103C18229
:10038B0006110000000000000609FF00000000003D
:10039B00C180C101008B228A23892412046FE4FDE2
:1003AB00AB22AA23A9248D82758300120154FF600E
:1003BB00061204170D80E922E4FDFCC3ED9FEC9EB1
:1003CB005015E4FBFA0BBB00010AEB64784A70F59D
:1003DB000DBD00010C80E42254494D453A004820E4
:1003EB00004D2000530052756E6E696E67200053EE
:1003FB00746F707065642000CFCDCFCECCCE120160
:10040B00937C007D0A120193ED2430FFD2A61204D7
:10041B0099C2A702049F8A248B2512046FAA26EA8D
:10042B00D39400400D120347AC24AD251204031ADC
:10043B0080ED22120458120485D20412000E12020F
:10044B00F73003FAC203C20412000E80F15389F095
:10045B00438901758A18758CFCC28DD28CD2A9D2B6
:10046B00AFC2B922AE07BE0104ED148006BE02096D
:10047B00ED243F4480FF1204A8227F381204A87F8A
:10048B000C1204A87F061204A87F010204A8C2A5BF
:10049B008F80D2A77F027EEFDEFEDFFC22C2A61288
:0704AB000499C2A702049F9F
:00000001FF
