:070000000203A87590FF2226
:10000B0002060E53890F438910D2ABD2AFC28E2298
:10001B00020887C293D292D291D2902097137F0578
:10002B007E001207B12097093097FD9008A00201BE
:10003B00962096137F057E001207B1209609309605
:10004B00FD9008A40201962095137F057E001207F0
:10005B00B12095093095FD9008A8020196209413C4
:10006B007F057E001207B12094093094FD9008ACF7
:10007B00020196D293C292D291D2902097137F0510
:10008B007E001207B12097093097FD9008A102015D
:10009B00962096137F057E001207B12096093096A5
:1000AB00FD9008A50201962095137F057E0012078F
:1000BB00B12095093095FD9008A902019620941363
:1000CB007F057E001207B12094093094FD9008AD96
:1000DB00020196D293D292C291D2902097137F05B0
:1000EB007E001207B12097093097FD9008A20201FC
:1000FB00962096137F057E001207B1209609309645
:10010B00FD9008A60201962095127F057E0012072E
:10011B00B12095083095FD9008AA806F2094127F2E
:10012B00057E001207B12094083094FD9008AE8034
:10013B005AD293D292D291C2902097127F057E0011
:10014B001207B12097083097FD9008A3803D2096A9
:10015B00127F057E001207B12096083096FD90089D
:10016B00A780282095127F057E001207B1209508E5
:10017B003095FD9008AB80132094147F057E001200
:10018B0007B120940A3094FD9008AFE493FF227FCF
:10019B00FF22BB010CE58229F582E5833AF583E06A
:1001AB00225006E92582F8E622BBFE06E92582F8F5
:1001BB00E222E58229F582E5833AF583E49322EF87
:1001CB008DF0A4A8F0CF8CF0A428CE8DF0A42EFE39
:1001DB0022BC000BBE0029EF8DF084FFADF022E4B2
:1001EB00CCF875F008EF2FFFEE33FEEC33FCEE9DF1
:1001FB00EC984005FCEE9DFE0FD5F0E9E4CEFD2218
:10020B00EDF8F5F0EE8420D21CFEADF075F008EFA2
:10021B002FFFED33FD4007985006D5F0F222C3981F
:10022B00FD0FD5F0EA2275F008758200EF2FFFEE77
:10023B0033FECD33CDCC33CCC58233C5829BED9A07
:10024B00EC99E58298400CF582EE9BFEED9AFDEC65
:10025B0099FC0FD5F0D6E4CEFBE4CDFAE4CCF9A8AB
:10026B008222B800C1B90059BA002DEC8BF084CFB3
:10027B00CECDFCE5F0CBF97818EF2FFFEE33FEED8A
:10028B0033FDEC33FCEB33FB10D703994004EB99B4
:10029B00FB0FD8E5E4F9FA227818EF2FFFEE33FEC7
:1002AB00ED33FDEC33FCC933C910D7059BE99A40FC
:1002BB0007EC9BFCE99AF90FD8E0E4C9FAE4CCFB14
:1002CB002275F010EF2FFFEE33FEED33FDCC33CC68
:1002DB00C833C810D7079BEC9AE899400AED9BFDF1
:1002EB00EC9AFCE899F80FD5F0DAE4CDFBE4CCFA04
:1002FB00E4C8F92212001EEFF470030203A7EFD338
:10030B00940940030203A7E51314602214602E1412
:10031B00603D14605114606024057075E51475F030
:10032B000A84AEF0EF75F00AA42EF5148063E51481
:10033B0075F00A8475F00AA42FF5148054E5127534
:10034B00F00A84AEF0EF75F00AA42EF5128042E5A8
:10035B001275F00A8475F00AA42FF512D3943B4062
:10036B003075123B802BE51175F00A84AEF0EF75FA
:10037B00F00AA42EF5118019E51175F00A8475F0B9
:10038B000AA42FF511D3943B400375113BC202C253
:10039B0000E513C3940550020513D20522787FE4C0
:1003AB00F6D8FD7581410203EF02064FE493A3F8E3
:1003BB00E493A34003F68001F208DFF48029E49371
:1003CB00A3F85407240CC8C333C4540F4420C88368
:1003DB004004F456800146F6DFE4800B010204086A
:1003EB001020408090057BE47E019360BCA3FF54FA
:1003FB003F30E509541FFEE493A360010ECF54C0B8
:10040B0025E060A840B8E493A3FAE493A3F8E4933F
:10041B00A3C8C582C8CAC583CAF0A3C8C582C8CA47
:10042B00C583CADFE9DEE780BE20B1232008207F29
:10043B00147E001207B120B11BD20820000BD20092
:10044B00C204E4F513D205800BC200D2058005303F
:10045B00B102C20820B0182007157F147E001207C6
:10046B00B120B010D20720000BB204D205800530AA
:10047B00B002C20720B21F20091C7F147E00120796
:10048B00B120B217D209200412E4F511F512F514BC
:10049B00F513D205800530B202C20920B310200A31
:1004AB000D7F147E001207B120B308C2012230B3B6
:1004BB0002C20A227BFF7A0879687D017F0112074D
:1004CB008EE514FB7A00750C027D067F011207EF97
:1004DB007BFF7A08796E7D087F0112078EE512FB90
:1004EB007A00750C027D0A7F011207EF7BFF7A08F9
:1004FB0079717D0C7F0112078EE511FB7A00750C6B
:10050B00027D0E7F011207EF7BFF7A0879747D1055
:10051B007F0102078E2002030204BFE51314601A49
:10052B0014602114602814602F1460362405703F6A
:10053B007BFF7A0879767D0680307BFF7A087976A7
:10054B007D0780267BFF7A0879767D0A801C7BFFEE
:10055B007A0879767D0B80127BFF7A0879767D0E8F
:10056B0080087BFF7A0879767D0F7F0112078E2238
:10057B00C107C108C109C10A011400011200011110
:10058B0000C105C104C100011300C101C102C103B7
:10059B00C10602150000021700001C23020B01F418
:1005AB00020B01F4031001F4031001F4037001F4C6
:1005BB00037001F4031003E801220701410000C29C
:1005CB00D5E830E70FB2D5E4C39BFBE49AFAE49984
:1005DB00F9E498F8EC30E717B2D512060012026D69
:1005EB00E4C39BFBE49AFAE499F9E498F8800312CC
:1005FB00026D30D50DE4C39FFFE49EFEE49DFDE448
:10060B009CFC22C0E0C0D0758A18758CFC0516E5E1
:10061B001670020515C394E8E5159403400875158B
:10062B0000751600D2030518E51870020517C39460
:10063B00F4E51794014008751700751800D206D021
:10064B00D0D0E0321200031208271208541204BF54
:10065B0012000E1204343000081202FF1205208023
:10066B00063005031204BFC205300308C203300471
:10067B0003120734300604C206B2023001D512064B
:10068B008E80D0300132E4F541E541C3952250F321
:10069B002001028023E54125E025E02423F8E6FE36
:1006AB0008E6FFE54125E025E02425F8E6FC08E611
:1006BB00FD12080C054180D1E4FFFE1206CCC28E60
:1006CB0022EF4E7005C28ED2A522AB07AA06E4F923
:1006DB00F87F807E8D7D5BFC1205CAE47B02FAF904
:1006EB00F81205CAC3E49FF540E49EF53FF58DE58E
:1006FB0040F58BD28E227F0AEA24FFFDE434FFFC07
:10070B007E008E0D8F0E8C0F8D107F017E00E4FB13
:10071B00EBC39510E50F6480F8748098500AAC0D0C
:10072B00AD0E1201CA0B80E822E511D394004004F0
:10073B0015118020E512D3940040041512800CE5AE
:10074B0014D39400400A151475123B75113B8004A9
:10075B00C204D201D205228E0A8F0BE4F50CF50DE3
:10076B00C3E50D950BE50C950A50171204343001B7
:10077B00117F017E001207B1050DE50D70E2050C2E
:10078B0080DE228B088A09890A12083EE4FDAB0839
:10079B00AA09A90A8D8275830012019DFF600612BA
:1007AB0007E50D80E922E4FDFCC3ED9FEC9E50159F
:1007BB00E4FBFA0BBB00010AEB64784A70F50DBD44
:1007CB0000010C80E422CFCDCFCECCCE1201DC7C4D
:1007DB00007D0A1201DCED2430FFD2A6120878C28C
:1007EB00A702087E8A0A8B0B12083EAA0CEAD39446
:1007FB0000400D120701AC0AAD0B1207D11A80EDA8
:10080B00228C088D091206CCAF09AE08120762E4E0
:10081B00FFFE1206CC7F327E000207625389F04343
:10082B008901758A18758CFCC28DD28CD2A9D2AF76
:10083B00C2B922AE07BE0104ED148006BE0209ED5B
:10084B00243F4480FF120896227F381208967F0CB3
:10085B001208967F061208967F0102089654696D5E
:10086B00653A004820004D200053002000C2A58FA0
:10087B0080D2A77F027EEFDEFEDFFC22C0E0E53FE9
:10088B00F58DE540F58BB2A5D0E032C2A612087803
:10089B00C2A702087E000102030405060708090A25
:0508AB000B0C0D0E0F07
:00000001FF
